:020000040000fa
:080000000002040000000000f2
:020000040000fa
:100400006f93200000ff270000018800000000001b
:100410000c000700c0442400010020000f0007006a
:10042000000020000000e000020032000000020096
:1004300000000000cc2e0200000000000040da00a6
:100440000000fe00400420000000e0000200320036
:10045000002020009001880000000600a102880012
:10046000800078000000eb001a003700e2804000b6
:1004700054a0b4009101ba00e280400054a0b4003e
:100480009102ba00e280400054a0b4000002eb00e8
:10049000472bde00f507b200a6018800602ce100c2
:1004a00008003a000049eb000201e80002003900b0
:1004b0003420ec0002f0a0008301e900f9ff3e00c7
:1004c000040037006128e100010032000082eb00e7
:1004d000040007001101ba000200e000e3ff3a0047
:1004e0000000060004d0a300e20f49001c00390000
:1004f000810278003549ba000201e80002003900a3
:100500003420ec0002f0a0008301e9000f0032006b
:100510002549ba000201e800020039003420ec004d
:1005200002f0a0008301e900080032000400e000ae
:100530000600320015c9ba000201e80002003900c5
:100540003420ec0002f0a0008301e9008180e80083
:1005500054a0b4000300e000e2ff3a0000000600ef
:100560009102ba00055978008301e900f7ff3200d3
:10057000c82ade00055978008301e900f3ff320044
:100580000400e000f1ff320011d9ba00eeff37009d
:100590006a3b040000000000a83b040000000000cb
:1005a000463c040000000000d83b040000000000ae
:1005b000703c040000000000023d04000000000048
:1005c000403d040000000000b63c040000000000b4
:1005d000dc3c040000000000863d04000000000038
:1005e0000e2d040000000000b22b040000000000eb
:1005f0001840040000000000424004000000000019
:10060000001c040000000000941c04000000000016
:10061000681d04000000000010030400000000003a
:10062000881f7800020478001400070008004000ca
:100630004f047800000006000000fa00881f7800d0
:10064000000478003fb99700ea81570080007800e5
:100650000031200010000700800078000000e0005a
:10066000020035000040eb0000f478000100780043
:100670004f0478000080fa00000006008001eb00c3
:100680000200370061f079008301e800828f510099
:10069000fcff3a00000006006200fa00889fbe00de
:1006a0008a9fbe000004be00020578008300780027
:1006b00060f92f000f004000b000070088979f00ee
:1006c00099979f000000eb00a09f9f009a4578003b
:1006d0000b80fb000000ea00cf04de0050c2b30034
:1006e00080cf550002003200090478000100370075
:1006f0000904e9000800e0000b0034001f90970097
:10070000080178008a0078008f91970003000100ab
:1007100090979f000000e000930032002f98970010
:1007200000004400a09f9f000905450050c2b3008f
:1007300080cf5500040032000b04e000e3ff3a00d4
:100740002f989700890037000000eb00809f9f00e2
:10075000f0979f00e0979f00d0979f00c0979f0061
:10076000b0979f00c09f9f00090037008092200033
:100770000080500000004000c1912000e10078009e
:100780004f98970001007000c09f9f000a05e80085
:100790001a4478008800fb00809220007c0007004b
:1007a000800078000000e000f0ff3a00a0c2b30033
:1007b000804f54000e003a00bf8897000180e90086
:1007c000b08f9f0010007800b09f9f000000e000f5
:1007d00005003d000000ea00b09f9f004f98970081
:1007e0000020a000c09f9f000a05e800100037000d
:1007f000b19f9f0003fd2f00f4ff27000800370082
:100800003f989700840f5000040032006a00b9003e
:100810000000410003004000b09f9f000a05e8006f
:100820001a01fb0003004100e90f5000f4ff3600fd
:10083000e0c2b3009a4f1000040032000080eb00c9
:10084000909f9f008a0478001c0037008a04e8000b
:10085000a0c2b300994f100007003a00bf8897006c
:100860000180e900b08f9f0010007800909f9f00ea
:100870008a84e800110037000000eb00909f9f0081
:1008800003fd2f00f4ff2700080037001f98970092
:10089000840f5000040032006a00b90000004100db
:1008a00003004000909f9f008904e8001901fb00ad
:1008b00003004100e90f5000f4ff360019447800ae
:1008c0008800fb00e0922000310007000000e000fb
:1008d00002003a0000447800010037008904e80073
:1008e000a87f9f0080c6b300804f540004003a00e8
:1008f000994f14000a003a00664050000600370085
:10090000c0c6b300804f540005003a00994f140050
:1009100003003a0065404000a07f9f008904e80082
:100920000905e800cbfb2f008f8545001901fb006e
:1009300060f92f000f0040000084e8008b01780070
:1009400080007800080078001a0007000000e0002e
:1009500005003a008b007800080078005801070075
:100960000000e00059ff3d000080eb004f05be0095
:100970004f04be000080fa00000006000200fa00ea
:10098000f1bf9f00010878000080fa000000060017
:10099000040037000204e00001003a0000000500f6
:1009a0000000e80010417800814f5100f9ff3a0043
:1009b00000000600889fbe008a1f780000047800af
:1009c000010278008244780003057800e0c6b30095
:1009d000804f5100d200320015003c006b405000a7
:1009e000804f5100240032000a003c00704050004b
:1009f000804f51000f01320065404000804f510090
:100a00007400320050c2b300804f510020013a0000
:100a10001c01370040c6b300804f51001b0032005c
:100a200065404000804f510019013a00170037001f
:100a300030c7b300804f5100fe00320007003c0079
:100a400064405000804f5100620032000040e800d6
:100a5000804f51000e013a00e700370050c7b30045
:100a6000804f51005b00320063404000804f5100d6
:100a700007013a00570037009180e900010a780029
:100a8000780090009171780007013700a86090000d
:100a9000c0c6b30080cf50000a003a00940078002e
:100aa00064805000000a78001000be004f89de000c
:100ab000cf91de000002be000203780082037800be
:100ac0001300370010c7b30080cf5000030032007e
:100ad000a0c6b30080cf500006003a009400780012
:100ae00068805000000a78003002be002003be007b
:100af000070037001480e900000a78001000780031
:100b000000027800cfa2de0005037800860378009b
:100b1000049cbe000694be00a860900080c6b3008e
:100b200080cf50000e00320020c6b30080cf5000ae
:100b300005003a000400fb00cf80de0001017800d0
:100b4000820178000a00370040c7b30080cf500010
:100b5000030032006640400080cf500006003a009b
:100b600004007800cf80de00010178008201780067
:100b7000009cbe000294be003800be002801be00ea
:100b8000e00f5000e08f5800e00f5900e08f59004f
:100b900003003d0078009000d1c2b3000a00370086
:100ba000081090000018a3000300320078009000a5
:100bb000b1c2b300040037000008a30053003200a4
:100bc0007800900001c2b300017578000000e800d1
:100bd0004d003700a8609000c0c6b30080cf500021
:100be00006003a009400780064805000000a780003
:100bf0001002be006033b8001300370010c7b30006
:100c000080cf500003003200a0c6b30080cf500058
:100c100006003a009400780068805000000a7800ce
:100c20003002be002003be00070037001480e90038
:100c3000000a78001000780000027800050020000b
:100c40000600200007002000049cbe000694be00a1
:100c5000a860900080c6b30080cf50000e00320024
:100c600020c6b30080cf500005003a000480fb008e
:100c70000100200002002000030020000a003700cd
:100c800040c7b30080cf50000300320066404000f0
:100c900080cf500006003a000400780001002000d8
:100ca0000200200003002000009cbe000294be0051
:100cb000081090000038a300140032003800be0075
:100cc0002801be00e00f5000e08f5800e00f5900ef
:100cd000e08f59000d00320080c7b30080cf540070
:100ce0000300320080c5b30080cf540007003a00f3
:100cf0007800900001c3b300017578008000e8001f
:100d000009f578000080e8007004980078009000f1
:100d100000004500600498008940780042003700d8
:100d2000a8609000c0c6b30080cf500025003200fc
:100d30000a003c006440500080cf50002800320080
:100d400000c0e80080cf500014003200684050001e
:100d500080cf500022003a000a00370040c7b3009d
:100d600080cf50001e0032006640400080cf50000f
:100d70001b0032006940500080cf500018003a003c
:100d8000060037001480e900000a7800100078009f
:100d9000485c900008487800450037001480e9005e
:100da000000a78001002780068089000cf80de000a
:100db0000101780082017800009abe000292be0014
:100dc0003b0037001480e900000a78001001780029
:100dd00068089000cf80de000089be003400370034
:100de0001480e900000a780010007800680c900078
:100df000080878002e0037001180e900800878008c
:100e000010007800cf80de000101780082017800b8
:100e1000009cbe000294be007800900000004500d7
:100e20006004980081c7b30008007800ee00070056
:100e30001f0037001480e900000a780010007800d5
:100e400060049800580990000200e00002003d0094
:100e50006e020700090037008000eb0072020700f5
:100e6000800078000000e00003003200680090007d
:100e7000008050000100370058089000100c9800c6
:100e80000b003700780090000275780006003700ec
:100e900078009000800045000904e00001003a005d
:100ea00059c2b300894878000000e8007004980037
:100eb0000000eb004f0578004f04be000000060064
:100ec0000400fa00889fbe008a9fbe008c1f780035
:100ed000000478000106780070089000f800900087
:100ee0000100500088089000010050009808900010
:100ef00001005000a808900001005000b8089000c0
:100f000001005000c8089000810550000002220036
:100f100090bf9f0000032300a0bf9f000810900017
:100f20000028a30018003a000b00e000160034006f
:100f30008b04780009057800e28f54000200360027
:100f40002a002000020037000900e0000b003400f6
:100f500058009000c80190000a017800ee80570008
:100f600003000100500498000000e00096003200e9
:100f70006808900000004500600c98008a845400c6
:100f80004240a900ebff3c00780190000200e00025
:100f90000b00340058009000c80190008c007800cd
:100fa00003000100500498000000e00086003200b9
:100fb00068089000f800900001004000600c980064
:100fc000880c90000900e000150034000905780045
:100fd000e28f5400020036002a0020000200370091
:100fe0000900e0000b00340058009000c801900098
:100ff0000a017800ec8057000300010050049800bb
:101000000000e00070003200680890000000450019
:10101000600c98008a8454004240a900ebff3c0019
:10102000180990000200e0000b003400e800900076
:1010300058009000c801900003000100500498007f
:101040000000e000600032006808900098089000fe
:1010500001004000600c9800a80c90000900e0001e
:101060001500340009057800e28f540002003600b4
:101070002a002000020037000900e0000b003400c5
:1010800058009000c80190000a017800ec805700d9
:1010900003000100500498000000e0004a00320004
:1010a0006808900000004500600c98008a84540095
:1010b0004240a900ebff3c00380990000200e0002c
:1010c0000d003400e8009000180890008080400077
:1010d00058009000c80190000300010050049800df
:1010e0000000e0003800320068089000b808900066
:1010f00001004000600c9800c80c90000900e0005e
:101100001500340009057800e28f54000200360013
:101110002a002000020037000900e0000b00340024
:1011200058009000c80190000a017800ec80570038
:1011300003000100500498000000e000220032008b
:101140006808900000004500600c98008a845400f4
:101150004240a900ebff3c00081090000028a300cb
:101160001b0032000b00e000190034008b047800f3
:1011700009057800e28f5400020036002a002000a2
:10118000020037000900e0000b0034005800900016
:10119000c80190000a017800ee80570003000100aa
:1011a000500498000000e00007003200680890003a
:1011b00000004500600c98008a8454004240a90059
:1011c00003003400eaff37000080eb000100370025
:1011d0000000eb004f0678004f05be004f04be0034
:1011e0000080fa00000006002f03b000889fbe00b8
:1011f0008a9fbe008c9fbe008e1f7800000778007b
:10120000b0902000c0b79f0080c5b30080cf5000d1
:1012100008003200a28f2000c2b79f007740400034
:1012200080cf500003003a0083002000b3b79f0036
:101230000a00370080c7b30080cf5000050032009d
:10124000a4002000b4b79f0080c5b30080cf500039
:1012500002003a0005012000b5b79f003e04be0021
:101260002e05be0040c6b30080cf50000300320000
:101270006540400080cf50000b003a00e00f540062
:10128000e08f5c00e00f5d00e08f5d0006003d0038
:101290006000b8006011b80008045000898458004c
:1012a0000a0559008b855900bfb39700e88f53009a
:1012b00003003200f08f530045003a00020037006f
:1012c000360020000100370046002000e00f5400e7
:1012d000e08f5c00e00f5d00e08f5d0005003a00ec
:1012e0005e08900081012000a1b79f000000e0008f
:1012f000080032003fb197000200e90008006000da
:10130000cfb197006340780090df9f007401200008
:10131000a4b79f00860278008502e900050033002b
:101320008b05d1000a85d3008984d3000884d300bb
:10133000f9ff3700089fbe000a97be00afb39700c1
:101340000700e90021fc2f008f8040000082400050
:101350003fb197008202e90012003700afb3970057
:101360008703e900a7b79f0000806200cfb0970015
:10137000615278003e00be002e01be008603780058
:101380008703e900050033008381d1000281d30087
:101390008180d3000080d300f9ff3700009fbe009a
:1013a0000297be003e00be002e01be00e00f5000be
:1013b000e08f5800e00f5900e08f5900d60034004c
:1013c000afb397000700e000e4ff3c00d200370015
:1013d000ae60900080c6b30080cf50000b0032009a
:1013e00006003c000104e0000800320066405000a6
:1013f00080cf500073003a0004003700c0c6b3002d
:1014000080cf50006f003a003100370008017800ab
:101410000800e00005003a005e089000810120000d
:10142000a1b79f000000e00009003200bfb19700a3
:10143000110009000381d8008000fd004fb2970021
:101440006440780090df9f0075012000a5b79f00e1
:10145000bfb39700110009000781d8008001780010
:10146000afb097000100e90022fc2f000f014100fe
:10147000000241000c003700bfb2970011000900c4
:101480008501d80000017800afb397008703e90019
:10149000a7b79f000590b90000805100cfb097001a
:1014a00061527800820178000300e00003003400fc
:1014b0002fb197000200e000efff3c00030078002e
:1014c000cf80de0001017800820178003a00370009
:1014d0000806be00e00f5400e08f5c0005003a00f3
:1014e0005e08900083012000a3b79f000000e00089
:1014f000090032003fb297006121b9000c00be0024
:10150000d8020700cfb297006540780090df9f00b7
:1015100077012000a7b79f003fb297006121b90073
:101520000c00be00510207000006be00afb29700db
:101530000500e90027fc2f008f83430080834300d0
:1015400097b79f00110037003fb197006114b900b1
:101550000801be000c00be00350207000005be00f9
:10156000afb197008301e900a3b79f000801be0057
:10157000b7000700000056001fb29700cfb29700d7
:101580006552780094b79f000a06be00e00f56002f
:10159000e08f5e0003003400afb397000700e00067
:1015a000e9ff3c004feade00cfa2de000c00be00e7
:1015b0000401780084017800009fbe000297be00fd
:1015c00055003700e00f5400e08f5c00e00f5d0035
:1015d000e08f5d0005003a005e0890008101200068
:1015e000a1b79f000000e0000d0032003fb197005e
:1015f00002027800cfa2de0005037800860378009f
:101600000800be000a01be001a0307004fb297008f
:101610006440780090df9f0075012000a5b79f000f
:101620003fb1970002027800cfa2de0005037800e8
:10163000860378000800be000a01be00060307000a
:10164000009fbe000297be00afb197000300e90003
:1016500024fc2f000f024200000642002000370049
:10166000bfb2970005047800cfc4de0009057800fa
:101670008a0578000802be000a03be005fa8970032
:10168000efa897007fa997008fb19700fd02070090
:10169000d0b79f00e1b79f00f2b79f0083bf9f00c4
:1016a000afb397008703e900a7b79f000802be0009
:1016b0000a03be00790307005faa970000005200ea
:1016c000cfb29700655678005fb09700efb09700f3
:1016d0007fb197008fb99700009fbe000297be00b0
:1016e0003e00be002e01be00d0af9f00e1af9f00c4
:1016f000f2af9f0083b79f00e00f5000e08f5800cb
:10170000e00f5900e08f590003003400afb097009c
:101710000100e000d2ff3c003fb19700e80f51000c
:1017200013003a000e1090000038a30010003200a1
:10173000afb19700f78f510006003e0024fc2f0048
:101740000f0242008300420000c3b300914f10001b
:1017500007003200afb297008502e900a5b79f00ed
:1017600000c3b30027fc2f008f83430080f37a006f
:10177000afb1970078811100120f98006e009000b1
:1017800024fc2f000f02420083004200bbfb070035
:101790001e0990005e089000800f510006003d0079
:1017a00002005000000f98000e1090000040a100b1
:1017b000001798000f0037000000e0000d003d000a
:1017c0000e10900074006000f00f500009003a0005
:1017d0007e089000fe009000010050008e089000ee
:1017e00001005000020050004240a90001003400f6
:1017f000000f98004f0778004f06be004f05be004f
:101800004f04be002f03b1000000060080007800e6
:10181000010037000000e8001004e000fdff3a007e
:1018200001005000000006008001eb0004003700ba
:101830008301e80090cf1000040032000000e800af
:10184000828f5100faff3a000000eb000000060012
:10185000020ab900001bb9000200b8008100420072
:101860008100430000000600889fbe008a9fbe00e2
:10187000010578000100e0000400350008003c008c
:101880000000e0002000320005003700600010007a
:10189000e080180002003b0001f02c001a00370025
:1018a0000004be006011b8006b0920000982cf005f
:1018b000020039000882cf000441b00069425200a2
:1018c0000e00320008003b0082817100610164005b
:1018d0008904d1000884d3008b05e8000442e800a5
:1018e000f9ff3a00050037000804440089844c00e1
:1018f0008b05e9000442e900fbff3a006b01070099
:101900000af0a70001f0a0004f05be004f04be0082
:1019100000000600889fbe008a9fbe008c1f7800d2
:10192000880107008f01330003866c006450e100da
:101930002e0032006420e100330032006150e100eb
:101940002f0032006120e100310032008585550012
:10195000eb07b00009002000080420000500370054
:101960000804440089844c000a0031000603430047
:1019700087834b000001530081815b00f8ff330037
:101980000203be000800a0000804440089844c0043
:10199000f6ff3900c639dd00830173000100320013
:1019a000130020008904d1000884d3000998a30003
:1019b000050032000800a7000300a0008904d10040
:1019c0000884d3008b05e8008904d1000884d30083
:1019d0000001eb000281d2003401070001f0a100f8
:1019e0000cf0a70001f0a000670137006420e100bf
:1019f000690132000801be000200be00f7ff370097
:101a00006120e100640132006000b800f3ff37009c
:101a10000000200001f82700f0ff3700140020002c
:101a200060013700889fbe008a9fbe008c1f78002f
:101a30000004be00760107000478a30026003a00e7
:101a40006120e1002500320009f8a30025003a00da
:101a50006420e10021003200f507b1000508a30071
:101a60000200320000004000818048006044b8005d
:101a70000310200002002000000040008180480088
:101a80000805440089854c000a0541008b85490002
:101a90000a0550008b855800030033000a00be0081
:101aa00002047400838474008301d1000281d30096
:101ab000830f7100f0ff3a008904d1000884d3003d
:101ac0006001490082017800c1adde00fb07b00073
:101ad000f60007002c0137000960a0000800be00d6
:101ae0002901370012022000c2478800f0ff2f00b2
:101af000f1ff2700240137000001be004401070068
:101b00000470a70003f0a1006509b10016003200bf
:101b10000d0035006828e10006003500f0ff2f00b9
:101b2000f1ff27000300e00013003b000100280044
:101b30000000050000004000818048008502e900a7
:101b4000fcff3a0008003700f88f420002003c001a
:101b50008000eb00000005008100d1000080d30070
:101b60008502e800fcff3a000300e00002003b00b1
:101b700060001000e08018000000060003f0a200e2
:101b8000889fbe008a9fbe008c1f7800ed00070072
:101b9000f40033006450e1004f0032006420e100a3
:101ba0005200320003826c0007003b000905d000a0
:101bb0000306d000820f54000c065d0002003900bd
:101bc0000200320089017800030678008582550002
:101bd00004003d000003fd008103fd008502ea00d2
:101be0008b854200840f720002003b0060001000f1
:101bf000e08018006011b8000005eb007a28e100d1
:101c00000a00390006007800c75ddd00f707b20062
:101c1000878075002d003700828171000a017800ed
:101c2000610560008180d1000080d3008502e90059
:101c3000f9ff3b00060440008784480002003b0097
:101c400060041400e0841c000988a300070032002f
:101c50008a81710082817100610164008904d10070
:101c60000884d3008b05e800170037000978a3002b
:101c700013003a000b00e000130034008b05e9006c
:101c80000804440089844c000a4474000978a300c5
:101c90000d003a000b00e000070034008b05e9005e
:101ca0000804440089844c0001003a000b00200025
:101cb0000978a300f7ff32000001eb0002003700b3
:101cc000828171000a017800780007000cf0a700fb
:101cd00001f0a000ac0037006420e10002003a00ef
:101ce000838f6c00ac0033000801be000200be0010
:101cf000a50037000001be00c50007000470a70062
:101d000003f0a10003f8a30013003a006509b10035
:101d100010003200090035006928e100020035009a
:101d200001002800000005000000400081804800fc
:101d30008502e900fcff3a0000000600f88f42002f
:101d4000050035008100d1000080d3008502e80045
:101d5000fcff3a00000006008000eb0000000500d8
:101d6000889fbe008a9fbe008c1f78007500070008
:101d70007c00330003866c006450e10024003200d4
:101d80006420e100270032006150e10022003200af
:101d90006120e100210032008b854200eb07b10099
:101da0000134b800003ab8000804420089844a00af
:101db000013ab8000030b8008880400009014a00ac
:101dc0000400330000004000818048000201490007
:101dd0008b05e900c909dd008301700001003200b4
:101de00013002000c814de004814dd004709de009f
:101df0001200b200c808de00088470002b00070043
:101e000001f0a1000cf0a70001f0a0005e00370077
:101e10006120e100600032000801be000200be0047
:101e2000f7ff37006150e100fcff3a005a0037002d
:101e3000839f68000100e00002003d006000100088
:101e4000e08018000300e00002003d006001110086
:101e5000e0811900050007004f00e00002003b0090
:101e600060001000e0801800000006006022b8004a
:101e7000060220000000d0008180d2000482d2003f
:101e80008582d2000000a0000202520083825a0024
:101e9000030031000202420083824a000000a100d8
:101ea0000603e900f3ff3a0000000600810020006d
:101eb000618055000b003d000b00200061fe2f00eb
:101ec0000100e1001d0034008281710061016400a5
:101ed0008904d1000884d3000000e800faff3a002a
:101ee00071002000610064000300700002006000c7
:101ef0000900320061044400e0844c000988a50018
:101f0000050032008b05e8006808e10002003a0095
:101f10008904d1000884d300f20f20000258e100a8
:101f200005003d00c75ddd00f907b200898075003e
:101f300008007800000006000bf827008b007800ee
:101f4000000005000004be00310007000003be00d1
:101f50000405be000200be002d000700844f75007e
:101f6000000006000200be006450e10005003600db
:101f70006420e100020036000968a30001003a0075
:101f80000800be000160a0004f0678004f05be00ab
:101f90004f04be0000000600f0ff2f00f1ff2700f5
:101fa000f9ff3700889fbe008a9fbe00841f78001b
:101fb000e4ff07004f00780011003300f0ff2f000e
:101fc000838f6c0006003b00040565000a00a70033
:101fd0000800370009f0a6001000200008003700b4
:101fe000820f5400838f5c00030039001000200032
:101ff00001003e000000200009f0a7000000ea00f8
:102000004f05be004f04be000000e00000000600c7
:10201000c70ade00f107b200f50fb2000800320077
:10202000e1cf4200020032000170a0002400050050
:10203000810f700001003200040805004400050013
:10204000810f700002003a00140005008502e900cb
:102050000000400081c04800fcff3b000170a00070
:102060002400050081ff07000400be0000000600f8
:10207000881f7800000478005001be004000be00b8
:10208000040040008580480006014900878149001e
:10209000009cbe000294be000400e1000588e1003f
:1020a0000690e1000798e10002003100680044005a
:1020b0001008e8004f04780000000600f48747008d
:1020c000889fbe008a9fbe008c9fbe008e1f780036
:1020d0000205be000004be00d4b79f00e5b79f0014
:1020e000f6b79f0087bf9f000000eb00c0b79f00be
:1020f000b0b79f00a0b79f0090b79f0080b79f0028
:102100000d042000bfb097004fb0970000014000c1
:102110000000e0000f003d004f08de0000007100ed
:10212000c0b79f009e00070001003d001200200084
:10213000a100070001003d0012002000a6000700da
:10214000b1000700b60007000f004000c8ff0700fd
:10215000220037004f08de0000067100ccb79f0058
:102160008f00070001003d001200200092000700d0
:1021700001003d001200200097000700a2000700a8
:102180000fb297009fb297002fb39700bfb397008d
:10219000a90007000000520081805a0002015b0084
:1021a00083815b0080b79f0091b79f00a2b79f001b
:1021b000b3b79f000007eb009f0007000020e1007d
:1021c00001a8e10002b0e10003b8e1000100310024
:1021d0001e0020000e005600c0b79f004fb29700af
:1021e0000400e0000700350010002000010020007e
:1021f0006011b80008047000898470000a0571003d
:102200008b8571008d06e900beff3a000400e000f6
:1022100003003d00820007000f00400094ff07000c
:102220004fa897000000e00004003a000fb49700a8
:102230009fb497002fb59700bfb597009400070093
:102240004f0778004f06be004f05be004f04be008a
:102250004f01b10000000600881f78001800200020
:10226000881f780095ff07008f87e9004f047800ea
:1022700000000600801feb0090ff07008f87e90039
:1022800000000600889fbe008a9fbe008c1f780059
:102290006e00070007003d0073000700e00f5b00c1
:1022a000e08f5b0007003d00320007000006eb00f6
:1022b000040037003400070002003d002a00070038
:1022c0001c00200072000700e3ff07000203be00ad
:1022d0000002be000c00e0000100320022000700f6
:1022e0000400be000601be004f0678004f05be0088
:1022f0004f04be0000000600889fbe008a9fbe00fb
:102300008c1f78005100070005003d0056000700b3
:10231000e00f5b00e08f5b0006003d00040037002b
:102320001900070003003d006000b8006011b8000c
:102330001000070056000700ceff07000203be0092
:102340000002be000c00e0000100320006000700a1
:102350000400be000601be004f0678004f05be0017
:102360004f04be00000006006000b8006011b80015
:10237000000037000402500085825800060359000f
:1023800087835900000006000006eb00e00f5200b2
:10239000e08f5a00e00f5b00e08f5b00000006005a
:1023a0000180400090b79f000001eb008fb09700c4
:1023b0000100e000000006000200700090b79f00de
:1023c0000180400080b79f000001eb00ffa897004c
:1023d0000100e000000006000200700080b79f00ce
:1023e000018040006faa9700cf20de00010070003e
:1023f000f0af9f0004024200250007004f18de00e6
:102400000002720000000600e4af9f0008044400d0
:1024100089844c000a054d008b854d0000000600a4
:102420003fb29700cfb297005fb39700efb397002a
:1024300000fe2f00000006003fb09700cfb09700cd
:102440005fb19700efb19700000006000205be00e3
:102450000004be00e00f5000e08f5800e00f59006c
:10246000e08f5900000006006000b8006011b8005d
:1024700008045000898458000a0559008b855900ca
:102480001c002000e00f5200e08f5a000000060000
:102490000800be000a01be0000000600889fbe00c2
:1024a0008a9fbe008c1f78000205be000004be009b
:1024b0000006eb00e00f5000e08f5800e00f5900dd
:1024c000e08f590007003d006000b8006011b800bf
:1024d00008045000898458000a0559008b8559006a
:1024e0001c002000e00f5200e08f5a00e00f5b005c
:1024f000e08f5b0002003d000f0007000c00a2000f
:102500000800be000a01be00120007000203be0060
:102510000002be000c00e0000100320006000700cf
:102520000400be000601be004f0678004f05be0045
:102530004f04be00000006006000b8006011b80043
:102540000402500085825800060359008783590011
:1025500000000600889fbe008a9fbe008c9fbe00c0
:102560000404b8000506b8008904460060854e00e2
:102570000606b8000a054600e0854e000706b800ca
:102580008b054600040eb800890446000a854e00fb
:10259000e0854d00050eb8000a0546008b854e000b
:1025a000060eb8008b0546000416b8000a05460062
:1025b0008b854e000516b8008b054600041eb8003a
:1025c0008b0546000800be000a01be004f06be0093
:1025d0004f05be004f04be00000006008600a900a3
:1025e0008620a900e7416000c10a200091407800e0
:1025f00082cfb30082c0600083c070008000fd0005
:10260000ace0b7008000fd0001c7b300814160006d
:10261000c10a200091407800f2c8b30082c0600077
:1026200083c070008000fd00ace0b7008000fd00ba
:10263000680160004311de006109200091407800cc
:102640000104a10082c070008000fd0096e0b70088
:102650008000fd000008b2004700de00004040009e
:1026600061092000914078000114a10080c0700031
:102670000100780096e0b7000000060021108800f5
:1026800030108800000006008a20a9008a40a900b6
:10269000e7416000c419dd00c10b200091407800c3
:1026a000f2c8b30082c0600083c070008000fd00eb
:1026b000bce0b7008000fd00800178000307b20095
:1026c000c419de00d10b20009140780082cfb30006
:1026d00082c0600083c070008000fd00bde0b700d4
:1026e0008000fd00680160004311de0002414100ee
:1026f000a1092000914078000114a10082c070005f
:102700008000fd009ae0b7008000fd000008b200e4
:102710004700de004200dd00a10920009140780062
:102720000124a10080c07000010078009ae0b70089
:1027300000000600a1108800b0108800000006000c
:10274000a1138800b0138800000006000602a8004c
:102750000000060006c2bf000008a300fdff3a000b
:1027600006c2bf000018a300faff3a0006c2bf006d
:102770000028a300f7ff3a0006c2bf000038a300fc
:10278000f4ff3a0006c2bf000048a300f1ff3a0080
:1027900009c2bf000068a300eeff3a000000060077
:1027a0000080fb001010880008c2bf0001c8b30001
:1027b000014060000080fb000000e9004f00de00e7
:1027c0000000e900000006000642a8000000060024
:1027d0001602a8000000060016c2bf000008a300f1
:1027e000fdff3a0016c2bf000018a300faff3a002e
:1027f00016c2bf000028a300f7ff3a0016c2bf00b0
:102800000038a300f4ff3a0016c2bf000048a3003e
:10281000f1ff3a0019c2bf000068a300eeff3a00c2
:10282000000006000080fb009010880018c2bf0066
:1028300001c8b300014060000080fb000000e90017
:102840004f00de000000e900000006001642a8006c
:10285000000006007602a8000000060076c2bf0055
:102860000008a300fdff3a0076c2bf000018a300d5
:10287000faff3a0076c2bf000028a300f7ff3a0033
:1028800076c2bf000038a300f4ff3a0076c2bf0052
:102890000048a300f1ff3a0079c2bf000068a3001e
:1028a000eeff3a00000006000080fb009013880055
:1028b00078c2bf0001c8b300014060000080fb0087
:1028c0000000e9004f00de000000e9000000060003
:1028d0007642a800000006000622a80000000600bc
:1028e000889fbe008a9fbe008c9fbe008005780036
:1028f0008106780002067800800478000005eb006d
:10290000150037000662a8000004eb000300370042
:102910008c0f5400130031000804e8006f0007001a
:102920000004e000faff32000010800080767d0095
:102930008904e90002003a0006a2a800010037005d
:1029400006a2a9000682a80006c2bf000048a30094
:10295000fdff3a000a05e8008b0f5500e9ff3a0039
:102960008004eb00090078004f06be004f05be0052
:102970004f04be000000060006a2a8000682a800c0
:10298000000006001622a80000000600889fbe0076
:102990008a9fbe008c9fbe0080057800810678006b
:1029a00002067800800478000005eb00150037006f
:1029b0001662a8000004eb00030037008c0f5400df
:1029c000130031000804e800480007000004e0009c
:1029d000faff32008010800080767d008904e900d3
:1029e00002003a0016a2a8000100370016a2a900b2
:1029f0001682a80016c2bf000048a300fdff3a00df
:102a00000a05e8008b0f5500e9ff3a008004eb004f
:102a1000090078004f06be004f05be004f04be00ff
:102a20000000060016a2a8001682a80000000600fa
:102a30007622a80000000600889fbe008a9fbe0084
:102a40008c9fbe0080057800810678000206780021
:102a5000800478000005eb00150037007662a800be
:102a60000004eb00030037008c0f5400130031000a
:102a70000804e800210007000004e000faff32002b
:102a80008013800080767d008904e90002003a000e
:102a900076a2a8000100370076a2a9007682a800dd
:102aa00076c2bf000048a300fdff3a000a05e80017
:102ab0008b0f5500e9ff3a008004eb000900780015
:102ac0004f06be004f05be004f04be0000000600ca
:102ad00076a2a8007682a8000000060008c2bf0007
:102ae0000000d100610060000000060018c2bf00b5
:102af0000000d100610060000000060078c2bf0045
:0c2b00000000d100610060000000060031
:020000040000fa
:020000040005f5
:0457f800bf7f00006f
:020000040000fa
:020000040005f5
:0457fc007f3e0000ec
:020000040000fa
:10000800164500001645000016450000164500007c
:10001800164500001645000016450000164500006c
:10002800164500001645000016450000064500006c
:10003800164500001645000016450000164500004c
:10004800164500001645000016450000164500003c
:10005800164500001645000016450000164500002c
:10006800164500001645000016450000164500001c
:10007800164500001645000016450000164500000c
:1000880016450000164500001645000016450000fc
:1000980016450000164500001645000016450000ec
:1000a80016450000164500001645000016450000dc
:1000b80016450000164500001645000016450000cc
:1000c80016450000164500001645000016450000bc
:1000d80016450000164500001645000016450000ac
:1000e800164500001645000016450000164500009c
:1000f800164500001645000016450000164500008c
:10010800164500001645000016450000164500007b
:10011800164500001645000016450000164500006b
:10012800164500001645000016450000164500005b
:10013800164500001645000016450000164500004b
:10014800164500001645000016450000164500003b
:10015800164500001645000016450000164500002b
:10016800164500001645000016450000164500001b
:10017800164500001645000016450000164500000b
:1001880016450000164500001645000016450000fb
:1001980016450000164500001645000016450000eb
:1001a80016450000164500001645000016450000db
:1001b80016450000164500001645000016450000cb
:1001c80016450000164500001645000016450000bb
:1001d80016450000164500001645000016450000ab
:1001e800164500001645000016450000164500009b
:0801f800164500001645000049
:020000040000fa
:10020800164500001645000016450000164500007a
:10021800164500001645000016450000164500006a
:10022800164500001645000016450000064500006a
:10023800164500001645000016450000164500004a
:10024800164500001645000016450000164500003a
:10025800164500001645000016450000164500002a
:10026800164500001645000016450000164500001a
:10027800164500001645000016450000164500000a
:1002880016450000164500001645000016450000fa
:1002980016450000164500001645000016450000ea
:1002a80016450000164500001645000016450000da
:1002b80016450000164500001645000016450000ca
:1002c80016450000164500001645000016450000ba
:1002d80016450000164500001645000016450000aa
:1002e800164500001645000016450000164500009a
:1002f800164500001645000016450000164500008a
:100308001645000016450000164500001645000079
:100318001645000016450000164500001645000069
:100328001645000016450000164500001645000059
:100338001645000016450000164500001645000049
:100348001645000016450000164500001645000039
:100358001645000016450000164500001645000029
:100368001645000016450000164500001645000019
:100378001645000016450000164500001645000009
:1003880016450000164500001645000016450000f9
:1003980016450000164500001645000016450000e9
:1003a80016450000164500001645000016450000d9
:1003b80016450000164500001645000016450000c9
:1003c80016450000164500001645000016450000b9
:1003d80016450000164500001645000016450000a9
:1003e8001645000016450000164500001645000099
:0803f800164500001645000047
:020000040000fa
:102b0c002025000064200000002000002564000047
:102b1c002025000064200000002500006420000037
:102b2c0025640000202500006420000025640000be
:102b3c002025000064200000256400000000000037
:102b4c000000000000000000000000000000000079
:102b5c000000000000000000000000000000000069
:102b6c000000000000000000000000000000000059
:102b7c000000000000000000000000000000000049
:082b8c00000000000000000041
:020000040000fa
:102b94000400fa00100798000040eb00004f780092
:102ba4001e009000604788006147800070c7b30032
:102bb400a058980060478000201290006047800071
:102bc400205890000e01e80013c0b30001cdb300fb
:102bd400040001001e4f4000614780001e40900029
:102be400f05098006147800010c0b30080609800e6
:102bf400614780000040eb009060980060478000cf
:102c04002012900060478000205890000e01e800d8
:102c140013c0b30011cdb300040001001e4f4000e7
:102c2400614780001e4090006f406000805898000b
:102c3400624780001e4090008080fb00000f20004f
:102c4400008060004480de001059980035000700c1
:102c5400004f78001e00fb000080fa000000060010
:102c64000e00fa0040079800510798000040eb005e
:102c740060479800eac8bf000080fb006007980026
:102c84006e009000e10f50000c0032006e009000c6
:102c9400e20f5000100032006e0090000000e000cf
:102ca400010032001b003700c50007006047980090
:102cb40010c0b300eae8b70016003700d1000700df
:102cc40020079800e70007006047980020c0b30081
:102cd400eae8b7000f003700f7000700008fbe00d6
:102ce4002e0090002e010700800078005e00900006
:102cf400010878001e00be006c0107004e01900020
:102d04000089be0010c0b300604798000040eb008b
:102d1400eae8b7006e4090000000fb000080fa0073
:102d2400000006002000fa000040eb00004f98006d
:102d34006047800020129000604780002058900077
:102d44006901470063c1b300a1cab30004000100d4
:102d5400004f980069004700104078000080fb0095
:102d64003007980069004700104090000080fb0085
:102d740020079800624780003e009000c800dd00f4
:102d84002e00900000807000000978006900470060
:102d9400204090000080fb00300798006900470045
:102da400304090000080fb002007980062478000bc
:102db4003e009000c800dd002e00900000807000ee
:102dc4001001980069004700404090000080fb001b
:102dd4003007980069004700504090000080fb00d5
:102de40020079800624780003e009000c800dd0084
:102df4002e009000008070002001980069004700b8
:102e0400604090000080fb001007980069004700b4
:102e1400704090000080fb00000f78006147800044
:102e24001e0090004800dd001e007000b0009800f5
:102e340069004700004890000080fb0010079800dc
:102e440069004700104890000080fb00000f7800e4
:102e5400614780001e0090004800dd001e007000e5
:102e6400c000980069004700204890000080fb00e3
:102e74001007980069004700304890000080fb006c
:102e8400000f7800614780001e0090004800dd00bc
:102e94001e007000d0009800690047004048900070
:102ea4000080fb00300798006900470050489000fc
:102eb4000080fb0020079800624780003e009000dd
:102ec400c800dd002e0090000080700060019800b2
:102ed40069004700604890000080fb0030079800bc
:102ee40069004700704890000080fb0020079800ac
:102ef400624780003e009000c800dd002e00900074
:102f04000080700070019800690047000050900034
:102f14000080fb00300798006900470010509000c3
:102f24000080fb0020079800624780003e0090006c
:102f3400c800dd002e009000008070000009980099
:102f440069004700205090000080fb003007980083
:102f540069004700305090000080fb002007980073
:102f6400624780003e009000c800dd002e00900003
:102f740000807000100998006900470040509000dc
:102f84000080fb0030079800690047005050900013
:102f94000080fb0020079800624780003e009000fc
:102fa400c800dd002e009000008070002009980009
:102fb4000e4890000000fb000080fa0000000600ac
:102fc4000200fa00e0c2b300104798000040eb0092
:102fd400004f780060478000101290006047800026
:102fe400205890000e01e80013c0b30041cfb30095
:102ff40004000100004f78001e00fb000080fa006e
:10300400000006000800fa006047800020129000cb
:1030140060478000205890006601470023c0b30039
:1030240061cfb3000400010066004700104078003f
:103034000080fb00100798006600470010409000d5
:103044000080fb00000f78001e0090004800dd00a7
:103054001e007000200798002e0090000080fa00e7
:10306400000006000200fa000040eb00004f780068
:1030740060478000106090000080fb004600dd0087
:103084004043b00010479800604780001012900041
:1030940060478000205890000e01e80013c0b30080
:1030a40041cfb30004000100004f78001e00fb0074
:1030b4000080fa00000006001400fa006047800057
:1030c4002012900060478000205890007001470053
:1030d40033c0b30061cfb3000400010070004700a7
:1030e400104078000080fb00010020004007980099
:1030f4005107980070004700104090000080fb00ca
:103104000100200020079800310798007000470054
:10311400204090000080fb0001002000008fbe00d2
:103124004e009000de009000c001dd00020020008f
:103134002e009000be009000c808dd000080fd0055
:10314400804078000040eb00000071008180710035
:103154003e017000ae8170006047800010609000f6
:103164000080fb00680010000202be00000378002b
:103174000603e900030033008502d1000482d30072
:10318400fbff37000400be00600798007107980039
:103194006e009000fe0090000080fa00000006001f
:1031a4000c00fa00889fbe00500798005e00900053
:1031b4006101b800604780005000900001002000c9
:1031c4000004510081845900604780004000900051
:1031d4006103b8008800780006007800000ab8008f
:1031e40007c0b900050178000001410009b0b90029
:1031f40000014100820278004129dd004f20de00f9
:1032040000007100cfa8de00200798003107980065
:103214006047800010089000cf80de004b0add007c
:10322400c502de00850272004b02dd0060478000ab
:10323400200890006101b9002e009000be009000ab
:1032440002014000838148000400be00f7fa070031
:10325400008fbe00624780002e009000be009000e8
:103264003e024000ae8248000400be00600998009f
:103274007109980060478000f00890006008900091
:1032840068004000e0804800cc0add004400de0015
:1032940000807200c488de00400798004e00900051
:1032a4004f04be000080fa00000006002400fa006b
:1032b400889fbe000017980011179800604780008f
:1032c40060099000f009900000062f00f1ff2f0024
:1032d400020040008380480040079800510798008e
:1032e400ce0090004e009000000ab800ce0090007e
:1032f4005e0090000088b9000501780000014100db
:10330400ce0090005e0090000088b90000014100ea
:10331400820278004429dd004c20de0000007100a8
:10332400cca8de00400f9800510f98006047800041
:10333400700090006103b900ce0890000600780088
:10334400000ab8004e0890000780b9000501780013
:10335400000141005e08900000b0b9000001410086
:1033640082027800440f9800550f98004e08900090
:10337400de089000c509dd004b00de00008071000e
:10338400cb88de00400f9800510f98006047800002
:10339400100090006103b900860078004e00900090
:1033a400000ab8005e00900000b0b9000501780082
:1033b400000141004e0090000780b9000001410067
:1033c40082027800240f9800350f98002e08900090
:1033d400be089000450add004b00de0000007200cc
:1033e400cb88de00200f9800310f98004e09900022
:1033f400de0990002e089000be08900002004000f4
:1034040083804800000f9800110f980060478000e7
:1034140010007800cf80de004209dd00ce01de001e
:10342400830171004201dd000e0890009e089000a7
:1034340002014000838148006047800010609000d2
:103444000080fb000202be00000378000603e900ce
:10345400030033000402420085824a00fbff370068
:103464000400be0062004000e08048004e09dd0018
:103474004200de0000007100c288de006007980090
:103484007107980060478000200090006103b90034
:10349400860078004e009000000ab8005e0090009c
:1034a40000b0b90005017800000141004e00900011
:1034b4000780b9000001410082027800c329dd00c1
:1034c4004d20de0000807100cda8de00400f980082
:1034d400510f980060478000600090006104b900bb
:1034e400ce0090004e009000000ab800ce0090007c
:1034f4005e0090000088b9000501780000014100d9
:10350400ce0090005e0090000088b90000014100e8
:1035140082027800ccabde004428dd004c23de00c0
:10352400060370008800780006007800000ab800de
:1035340007c0b900050178000001410009b0b900d5
:10354400000141008202780040a8de00cf80de0046
:10355400200f9800310f98004e099000de0990006a
:103564002e089000be0890000200400083804800ae
:1035740062004000e08048004e09dd004200de00a9
:1035840000007100c288de00000f9800110f98003f
:1035940060478000300090006104b8000e0990007c
:1035a4009e09900000002800010020000200400055
:1035b400838048000003be0088007800060078007d
:1035c400000ab80007c0b9000501780000014100f5
:1035d40009b0b9000001410082027800c129dd0070
:1035e4004f20de0000807100cf28de002007980005
:1035f400310798006e019000fe0190000e109000bb
:103604009e1090000204500083845800604780009c
:10361400106090000081fb0000352c0001002000a8
:10362400020278000402e900030033008180d10023
:103634000080d300fbff37000003be008800780041
:1036440006007800000ab80007c0b9000501780038
:103654000001410009b0b900000141008202780074
:10366400048fbe001e00be00e00f5000e08f580023
:10367400090035001e00be000000400081804800a3
:103684002e019000be019000f7f90700600f98002a
:10369400710f9800080037002e019000be019000c1
:1036a4001e00be00f0f907000000400081804800c1
:1036b400600f9800710f98006e089000fe0890004b
:1036c400c80add004800de0000807200c888de0001
:1036d400400f9800510f9800ce0890004e089000bb
:1036e400000ab800ce0890005e0890000088b90077
:1036f4000501780000014100ce0890005e089000aa
:103704000088b9000001410082027800440f98004b
:10371400550f9800ce089000e0bd20000009b800c5
:103724004e0890006000b9000302780000024200d5
:10373400de089000e0bd20000088b90000024200cd
:10374400840178004098de00cf80de00400f9800ae
:10375400510f9800ee08900030342e00000ab80093
:10376400ee0890000080eb000088b90005017800a5
:1037740000014100fe08900030342e000088b9009a
:10378400000141008202780040a8de00cf80de0004
:10379400200f9800310f98004e099000de09900028
:1037a4002e089000be08900002014000838148006a
:1037b400f0ec20000100200002004000838048005b
:1037c400c489de004c0bdd004401de0002017300fd
:1037d4006e089000fe0890000000410081804900be
:1037e400600f9800710f98006e089000fe0890001a
:1037f4004f04be000080fa00000006000400fa0036
:10380400204798000040eb00004f78002e409000c5
:103814000080fb00610060000004e0000c00320046
:1038240020802000f2040700004f78000040eb00e5
:1038340098050700004f78000040eb00440507009e
:10384400004f78000040eb00fd050700004f7800b2
:103854002e4090000080fb000000d1006100600059
:103864000004e000120032002081200089020700d9
:10387400004f78000040eb00d2020700004f7800b0
:103884000040eb0003040700004f780040c0b30081
:1038940015030700004f780020c0b3005f03070042
:1038a400004f780010c0b300aa030700004f78004f
:1038b4002e4090000080fb004200de0061006000aa
:1038c4000004e0000c003200e0812000060b070039
:1038d400004f780030c0b3001a0b0700004f780087
:1038e4000040eb00600b0700004f780070c0b3008d
:1038f400a10b0700004f78002e4090000080fb00d1
:103904004300de00610060000004e00003003200b8
:10391400a08220009efc0700004f78000080fa007f
:10392400000006000400fa00204798000040eb0065
:10393400004f78002e4090000080fb006100600082
:103944000004e00008003200c080200008060700e0
:1039540060408000f042880070408000004388008e
:1039640080408000104388002e4090000080fb00bf
:103974000000d100610060000004e0000800320093
:10398400808120005b020700c04080004043880023
:10399400d040800050438800e040800060438800ad
:1039a4002e4090000080fb004200de0061006000b9
:1039b4000004e0000800320040822000d70b07001a
:1039c400204180009043880030418000a04388005b
:1039d40040418000b04388002e4090000080fb00ee
:1039e4004300de00610060000004e0000d003200ce
:1039f400418520000085200099fc0700004f7800d5
:103a040010c0b3009e4f100006003a0080428000b0
:103a140091428000e0438800f1438800a042800086
:103a2400004488000080fa00000006000200fa004a
:103a3400004f78001147980010c0b3009e4f10004b
:103a440010003a00e0d022005040880020bb220041
:103a540040408800e0d02200a040880020bb220023
:103a6400b0408800e0d022001041880020bb220032
:103a740000418800e0d022007042880020bb220070
:103a8400604288001e409000e14f500002003a005e
:103a940080012400e04288001e409000e24f500064
:103aa40002003a0020042400e042880000c0210003
:103ab400b042880040c92100c042880080d621005d
:103ac400d04288000080fa00000006003a00fa00a4
:103ad400889fbe004077980010c0b30040579800fc
:103ae40010c0b3003057980010c0b300205798009e
:103af4000000200001f8230070079800010f9800cf
:103b04000000200001f82300500798006107980086
:103b14000000200001f823003007980041079800b6
:103b24000000eb002007980075004700615a290047
:103b34001d00090031587800e001b1006000b800b0
:103b4400008fbe001180200091407800750047006e
:103b540001487800f500470010c0b3009040980079
:103b6400750047004e7190002240980030c0b300a9
:103b740000e8b70001c8bf000040e80001e8b70052
:103b84004e7090000080fb00610060000004e000c3
:103b94006f003200f0428000cf80de0031f7070072
:103ba4007e0190008e0990006cf807000004be00ae
:103bb4004e5090000080fb00cf80de0029f7070004
:103bc4000001be000800be0064f80700c9f7070042
:103bd4002007980000c8bf000081fb002e00900061
:103be4004880de008040780075004700017178004d
:103bf40000c8bf000040e80000e8b70000c8bf00ec
:103c04000081fb002e0090008040780000c0eb0093
:103c140080c06000750047000171780000c8bf00d3
:103c24000040e80000e8b70000438000cf80de00d9
:103c34000cf707007e0190008e09900047f80700fa
:103c44000004be004e5090000080fb00cf80de00d8
:103c540004f707000001be000800be003ff807009b
:103c6400a4f707002007980000c8bf000081fb00ec
:103c74002e0090004880de008040780075004700e8
:103c84000171780000c8bf000040e80000e8b700f8
:103c940000c8bf000081fb002e0090008040780027
:103ca40000c0eb0080c0600075004700017178001f
:103cb40000c8bf000040e80000e8b70010438000df
:103cc400cf80de00e7f607007e0190008e099000a9
:103cd40022f807000004be004e5090000080fb0054
:103ce400cf80de00dff607000001be000800be0042
:103cf4001af807007ff707002007980000c8bf00e4
:103d04000081fb002e0090004880de008040780097
:103d1400750047000171780000c8bf000040e8004a
:103d240000e8b70000c8bf000081fb002e0090002f
:103d34008040780000c0eb0080c060007500470040
:103d44000171780000c8bf000040e80000e8b70037
:103d54004e7090000080fb000000d1006100600004
:103d64000004e0006f00320040438000cf80de009a
:103d7400bcf607005e019000ee019000f7f7070023
:103d84000004be002e5090000080fb00cf80de00b7
:103d9400b4f607000001be000800be00eff70700fc
:103da40054f707002007980000c8bf000081fb00fb
:103db4002e0090004880de008040780075004700a7
:103dc4000171780000c8bf000040e80000e8b700b7
:103dd40000c8bf000081fb002e00900080407800e6
:103de40000c0eb0080c060007500470001717800de
:103df40000c8bf000040e80000e8b700504380005e
:103e0400cf80de0097f607005e019000ee0190007f
:103e1400d2f707000004be002e5090000080fb0083
:103e2400cf80de008ff607000001be000800be0050
:103e3400caf707002ff707002007980000c8bf0043
:103e44000081fb002e0090004880de008040780056
:103e5400750047000171780000c8bf000040e80009
:103e640000e8b70000c8bf000081fb002e009000ee
:103e74008040780000c0eb0080c0600075004700ff
:103e84000171780000c8bf000040e80000e8b700f6
:103e940060438000cf80de0072f607005e01900070
:103ea400ee019000adf707000004be002e50900014
:103eb4000080fb00cf80de006af607000001be0030
:103ec4000800be00a5f707000af7070020079800be
:103ed40000c8bf000081fb002e0090004880de0077
:103ee40080407800750047000171780000c8bf0069
:103ef4000040e80000e8b70000c8bf000081fb00f4
:103f04002e0090008040780000c0eb0080c060006c
:103f1400750047000171780000c8bf000040e80048
:103f240000e8b7004e7090000080fb004200de0005
:103f3400610060000004e0006f00320090438000e4
:103f4400cf80de0047f607003e019000ce019000ce
:103f540082f707000004be003e5090000080fb0082
:103f6400cf80de003ff607000001be000800be005f
:103f74007af70700dff607002007980000c8bf00a3
:103f84000081fb002e0090004880de008040780015
:103f9400750047000171780000c8bf000040e800c8
:103fa40000e8b70000c8bf000081fb002e009000ad
:103fb4008040780000c0eb0080c0600075004700be
:103fc4000171780000c8bf000040e80000e8b700b5
:103fd400a0438000cf80de0022f607003e0190005f
:103fe400ce0190005df707000004be003e50900033
:103ff4000080fb00cf80de001af607000001be003f
:104004000800be0055f70700baf60700200798001d
:1040140000c8bf000081fb002e0090004880de0035
:1040240080407800750047000171780000c8bf0027
:104034000040e80000e8b70000c8bf000081fb00b2
:104044002e0090008040780000c0eb0080c060002b
:10405400750047000171780000c8bf000040e80007
:1040640000e8b700b0438000cf80de00fdf5070014
:104074003e019000ce01900038f707000004be0016
:104084003e5090000080fb00cf80de00f5f5070075
:104094000001be000800be0030f7070095f60700d7
:1040a4002007980000c8bf000081fb002e0090008c
:1040b4004880de0080407800750047000171780078
:1040c40000c8bf000040e80000e8b70000c8bf0017
:1040d4000081fb002e0090008040780000c0eb00bf
:1040e40080c06000750047000171780000c8bf00ff
:1040f4000040e80000e8b7004e7090000080fb002c
:104104004300de00610060000004e0003f00320074
:10411400e6438000f7438000068fbe0000c8bf005e
:104124000081fb001e00be004088de00cf80de0060
:1041340080407800750047000171780000c8bf0016
:104144000040e80000e8b70000c8bf008082fb0020
:1041540000f02f00010020009e0178001e02900054
:104164000001780001007800028161000000620013
:104174006103b800361f9800471f98003e1890004e
:10418400ce189000c000dd0000002000301f980011
:10419400411f98003e189000ce1890006113b8009b
:1041a400361f9800471f98003e199000ce199000c2
:1041b4000200700083807000c809dd004800de0042
:1041c40000807100c888de008040780075004700d8
:1041d4008172780000c8bf000040e80000e8b70022
:1041e40000c8bf000081fb001e00780080407800fa
:1041f40000c0eb0080c060007500470001717800ca
:1042040000c8bf000040e80000e8b7004e7090000e
:104214000004e00017003d000644800026079800d3
:1042240000c8bf000081fb002e0090004880de0023
:1042340080407800750047000171780000c8bf0015
:104244000040e80000e8b70000c8bf000081fb00a0
:104254002e0090008040780000c0eb0080c0600019
:10426400750047000171780000c8bf000040e800f5
:1042740000e8b700e242800001802000914078000d
:1042840075004700020001004f04be000080fa00e0
:10429400000006000400fa00100798000040eb003c
:1042a400004f78001e0090009047880091478000de
:1042b400e0c1b3008048780090478000100290006d
:1042c40090478000104078000e01e80013c0b3004e
:1042d400a1c0b30004000100004f780091478000a2
:1042e4001e409000904098001e00fb000080fa00e1
:1042f400000006000a00fa00400798000040eb00a6
:10430400004f7800904780000000e00003003a006e
:1043140000c0eb00004f7800270037009047800072
:104324001002900090478000104078000e01e800d1
:1043340063c0b30031c0b30004000100004f780033
:104344000e00e800104078000080fb00c800dd008b
:104354000e00e800104090000080fb008080700098
:104364004e009000010878000e00e80040409000e4
:104374000080fb00c800dd000e00e8005040900003
:104384000080fb00808070004e00900011009800b7
:104394000e00e800204090000080fb00c800dd0013
:1043a4000e00e800304090000080fb008080700028
:1043b4004e009000210098001e00fb000080fa00cf
:1043c400000006000400fa00204798000040eb00bb
:1043d400004f7800904780000000e00003003a009e
:1043e40000c0eb00004f7800200037002e40900002
:1043f400e24f500003003600e0cfb300004f7800d6
:104404001a00370090478000100290009047800007
:10441400104078000e01e80013c0b3008040eb00a8
:1044240004000100004f78001e4090008040780096
:10443400c0cfb30080c060002e4090006340600095
:1044440000c0700010479800904780002002900040
:1044540090478000104078000e01e80013c0b300bc
:104464008040eb0004000100004f78001e00fb00b8
:104474000080fa00000006000400fa00100798000b
:104484000040eb00004f7800904780000000e000ff
:1044940003003a0000c0eb00004f78000f00370023
:1044a40090478000100290009047800010407800f0
:1044b4000e01e80013c0b3008040eb0004000100cb
:1044c400004f78001e409000634060001047980041
:1044d4009e4090001e009000014878001e00fb00e2
:1044e4000080fa00000006000400fa00204798004b
:1044f4000040eb00004f7800904780000000e0008f
:1045040003003a0000c0eb00004f7800220037009f
:104514002e409000e64f500003003600e0cfb30079
:10452400004f78001c003700904780001002900074
:1045340090478000104078000e01e80013c0b300db
:104544008040eb0004000100004f78001e40900002
:104554008040780030ceb30080c060002e409000d0
:104564000080fb004200dd007c40600000c0700061
:1045740010479800904780002002900090478000e8
:10458400104078000e01e80013c0b3008040eb0037
:1045940004000100004f78001e00fb000080fa00b8
:1045a400000006000400fa00100798000040eb0029
:1045b400004f7800904780000000e00003003a00bc
:1045c40000c0eb00004f78001100370090478000d6
:1045d4001002900090478000104078000e01e8001f
:1045e40013c0b3008040eb0004000100004f7800ca
:1045f4001e4090000080fb007c0060004280de00d2
:10460400104798009e4090001e00900001487800da
:104614001e00fb000080fa00000006000400fa00ff
:10462400204798000040eb00004f7800904780003e
:104634000000e00003003a0000c0eb00004f7800e7
:10464400220037002e409000e34f50000300360054
:10465400e0cfb300004f78001c0037009047800083
:104664001002900090478000104078000e01e8008e
:1046740013c0b3008040eb0004000100004f780039
:104684001e40900080407800f0c9b30080c06000f4
:104694002e4090000080fb004500dd000046b20083
:1046a40000c07000104798009047800020029000de
:1046b40090478000104078000e01e80013c0b3005a
:1046c4008040eb0004000100004f78001e00fb0056
:1046d4000080fa00000006000400fa0010079800a9
:1046e4000040eb00004f7800904780000000e0009d
:1046f40003003a0000c0eb00004f780012003700be
:10470400904780001002900090478000104078008d
:104714000e01e80013c0b3008040eb000400010068
:10472400004f78001e4090008080fb0000062000af
:10473400008060004580de00104798009e40900095
:104744001e009000014878001e00fb000080fa0063
:10475400000006000400fa00204798000040eb0027
:10476400004f7800904780000000e00003003a000a
:1047740000c0eb00004f7800240037002e4090006a
:10478400e74f500003003600e0cfb300004f78003d
:104794001e00370090478000100290009047800070
:1047a400104078000e01e80013c0b30011c0b3003c
:1047b40004000100004f78001e4090008040780003
:1047c400f0c1b30000c160002e4090000080fb00e7
:1047d4004500dd008040780000ceb30000c06000da
:1047e400004071001047980090478000200290001c
:1047f40090478000104078000e01e80013c0b30019
:1048040011c0b30004000100004f78001e00fb003b
:104814000080fa00000006000400fa001007980067
:104824000040eb00004f7800904780000000e0005b
:1048340003003a0000c0eb00004f7800120037007c
:10484400904780001002900090478000104078004c
:104854000e01e80013c0b30011c0b300040001004e
:10486400004f78001e4090008080fb00000e200066
:10487400008060004580de00104798009e40900054
:104884001e009000014878001e00fb000080fa0022
:10489400000006000400fa00204798000040eb00e6
:1048a400004f7800904780000000e00003003a00c9
:1048b40000c0eb00004f7800200037002e4090002d
:1048c400e34f500003003600e0cfb300004f780000
:1048d4001a00370090478000100290009047800033
:1048e400104078000e01e80013c0b30021c0b300eb
:1048f40004000100004f78001e40900080407800c2
:10490400c0cfb30080c060002e40900063406000c0
:1049140000c070001047980090478000200290006b
:1049240090478000104078000e01e80013c0b300e7
:1049340021c0b30004000100004f78001e00fb00fa
:104944000080fa00000006000400fa001007980036
:104954000040eb00004f7800904780000000e0002a
:1049640003003a0000c0eb00004f78000f0037004e
:10497400904780001002900090478000104078001b
:104984000e01e80013c0b30021c0b300040001000d
:10499400004f78001e40900063406000104798006c
:1049a4009e4090001e009000014878001e00fb000d
:1049b4000080fa00000006000400fa0010079800c6
:1049c4000040eb00004f7800904780000000e000ba
:1049d40003003a0000c0eb00004f78000f003700de
:1049e40090478000100290009047800010407800ab
:1049f4000e01e80013c0b30091c0b300040001002d
:104a0400004f78001e4090006140600010479800fd
:104a14009e4090001e009000014878001e00fb009c
:104a24000080fa00000006000400fa001007980055
:104a34000040eb00004f7800904780000000e00049
:104a440003003a0000c0eb00004f7800110037006b
:104a5400904780001002900090478000104078003a
:104a64000e01e80013c0b30091c0b30004000100bc
:104a7400004f78001e4090000080fb006200600040
:104a84000080d100104798009e4090001e009000c6
:104a9400014878001e00fb000080fa0000000600b8
:104aa4000800fa00204798003147980042479800d0
:104ab40053479800904780000000e00003003a004c
:104ac4000080eb00300798002200370090478000f8
:104ad4001002900090478000104078000e01e8001a
:104ae40013c0b300ae40900004000100004f7800f2
:104af4005e40900080c0ea001e40900000c160004b
:104b04003e4090008080fb004e4090000080fb00ff
:104b14000008dd00804078005e40900000c0600026
:104b240000407100104798009047800020029000d8
:104b340090478000104078000e01e80013c0b300d5
:104b4400ae409000040001001e4f40001e00fb0018
:104b5400300798003e0090000080fa000000060034
:104b64000a00fa002047980021079800624798003d
:104b740073479800904780000000e00003003a006b
:104b84000080eb0040079800160037009047800033
:104b940010029000904780001040780013c0b300ca
:104ba4002e019000ae40900004000100004f7800f8
:104bb4002e009000904078007e40900000c060007d
:104bc4008080fb006e4090000080fb000088de00c7
:104bd400804078002e009000014878001e00fb0001
:104be400400798004e0090000080fa000000060084
:104bf4000400fa00100798000040eb00004f780012
:104c04001e009000804788008147800080c3b30065
:104c1400c040980080478000400290008047800098
:104c2400404090000e01e80013c0b3008040eb0048
:104c340004000100004f7800814780001e4090006e
:104c44006740600080487800804780004002900000
:104c540080478000404090000e01e80013c0b3007c
:104c640011c0b300040001001e4f400081478000c2
:104c74001e4090006f406000904098008247800082
:104c84001e4090008080fb00000f20000080600028
:104c94004480de00204198001e00fb000080fa00e2
:104ca400000006000600fa00204798000040eb00d0
:104cb400004f7800804780000000e00003003a00c5
:104cc4000080eb00200798001e003700804780001a
:104cd4004002900080478000404090000e01e800b0
:104ce40013c0b300a1c0b30004000100004f78005a
:104cf4001e40900080407800f0ceb30080c0600079
:104d04002e4090000080fb004400dd0070406000f5
:104d140000c0700010479800804780003002900067
:104d240080478000404090000e01e80013c0b300ab
:104d3400a1c0b30004000100004f78001e00fb0076
:104d4400200798002e0090000080fa000000060062
:104d54000600fa00204798000040eb00004f78005e
:104d6400804780000000e00003003a000080eb0070
:104d740020079800240037002e409000e24f500096
:104d84001f003c0080478000400290008047800064
:104d9400404090000e01e80013c0b30041c1b300cd
:104da40004000100004f78001e409000804078000d
:104db40070ceb30080c060002e4090000000fb0065
:104dc4004300dd007840600000c070001047980088
:104dd400804780003002900080478000404090006f
:104de4000e01e80013c0b30041c1b3000400010088
:104df4001e4f40001e00fb002007980002003700f1
:104e04000080eb00200798002e0090000080fa003c
:104e1400000006000600fa00100798000040eb00ae
:104e2400004f7800804780000000e00003003a0053
:104e34000080eb00200798001300370080478000b3
:104e440040029000804780004040900013c0b300af
:104e54001e01900041c1b30004000100004f78001e
:104e64001e009000104078000080fb007800600075
:104e74004380de00804078001e00900001487800e6
:104e84001e00fb00200798002e0090000080fa000e
:104e9400000006000a00fa00404798000040eb00ba
:104ea400004f7800804780000000e00003003a00d3
:104eb4000080eb00400798005e0037004e409000f1
:104ec400e24f500059003e008047800040029000ad
:104ed40080478000404090000e01e80013c0b300fa
:104ee40051c1b30004000100004f780080478000e6
:104ef4004002900080478000404090000e81e8000e
:104f040013c0b300a1c0b300040001001e4f400051
:104f14004e4090000080fb0030079800be009000d7
:104f2400e18f5000100032003e009000e20f50006c
:104f340018003200be0090000100e00001003200c1
:104f44001f0037009e409000e0cfb30000c0600017
:104f540010479800ae409000e0cfb30000c060005e
:104f640020479800190037009e409000e0cfb3001e
:104f740000c06000104798002e40900080407800e8
:104f8400e0cfb30000c060000004a00020479800f8
:104f94000e0037001e40900080407800e0cfb30040
:104fa40000c060000004a00010479800ae409000cc
:104fb400e0cfb30000c06000204798000300370032
:104fc4000080eb00400798001a00370080478000fb
:104fd4003002900080478000404090000e01e800bd
:104fe40013c0b30051c1b300040001001e4f4000c0
:104ff400804780003002900080478000404090004d
:105004000e81e80013c0b300a1c0b3000400010086
:105014001e4f400080478000ce40900031409800f1
:105024001e00fb0040079800020037008080eb0060
:10503400410798004e0090000080fa00000006002e
:105044000600fa00204798000040eb00004f78006b
:10505400804780000000e00003003a000080eb007d
:1050640020079800220037002e409000e64f5000a1
:105074001d003e0080478000400290008047800071
:10508400404090000e01e80013c0b30041c1b300da
:1050940004000100004f78001e409000804078001a
:1050a40080cfb30080c060002e4090006740600055
:1050b40000c07000104798008047800030029000c4
:1050c40080478000404090000e01e80013c0b30008
:1050d40041c1b300040001001e4f40001e00fb004c
:1050e40020079800020037000080eb00200798009a
:1050f4002e0090000080fa00000006000600fa006e
:105104001007980010c0b300004f7800804780005b
:105114000000e00003003a000080eb002007980044
:1051240010003700804780004002900080478000d4
:105134004040900013c0b3001e01900041c1b30071
:1051440004000100004f78001e0090001040780019
:10515400e74060001e009000014878001e00fb003c
:10516400200798002e0090000080fa00000006003e
:105174001200fa0070079800804780000000e000e9
:1051840003003a000080eb00000f98005c00370039
:10519400804780004002900080478000404090009b
:1051a4006701470063c0b30021c0b30004000100dd
:1051b4006047980067004700104078008080fb003b
:1051c400000c2000008060004680de00200798006c
:1051d40067004700104090000080fb004200dd00a3
:1051e40010079800ae0090001e009000008f700021
:1051f4001e0078004900de00610060000004e00049
:10520400040032001e00780001c02f00010070006d
:10521400000f78007e0090001e08780067004700a9
:10522400204090008080fb00000c20000080600083
:105234004680de0020079800670047003040900059
:105244000080fb004200dd0010079800ae009000d3
:105254001e009000008f70001e0078004900de00e0
:10526400610060000004e000040032001e007800c9
:1052740001c02f0001007000000f78007e00900034
:105284009e0078001100980067004700404090009d
:105294008080fb00000c2000008060004680de005f
:1052a4002007980067004700504090000080fb00f2
:1052b4004200dd0010079800ae0090001e00900030
:1052c400008f70001e0078004900de00610060005d
:1052d4000004e000040032001e00780001c02f002a
:1052e40001007000000f78007e0090009e0078009e
:1052f400210098006e4090000000fb00000f980011
:105304000e0890000080fa00000006000a00fa006f
:10531400881f780010079800804780000000e00094
:1053240003003a000080eb00400798002400370097
:1053340080478000400290008047800040409000f9
:105344000e01e80013c0b30081c0b30004000100e3
:10535400004f78001e4490000800fb00cf80de0060
:1053640040f1070020079800310798000804e00086
:1053740007003d0002002000033824002e009000a6
:10538400be009000fdf10700200798003107980047
:105394000200200003f023002e009000be009000c5
:1053a4006ef2070002002000031f2400f2f1070040
:1053b4001e0190000089be001e00fb0040079800fb
:1053c4004e0090004f0478000080fa0000000600b0
:1053d4000800fa0020479800314798004247980097
:1053e40053479800804780000000e00003003a0023
:1053f4000080eb00300798002200370080478000cf
:105404004002900080478000404090000e01e80078
:1054140013c0b300ae40900004000100004f7800b8
:105424005e40900080c0ea001e40900000c1600011
:105434003e4090008080fb004e4090000080fb00c6
:105444000008dd00804078005e40900000c06000ed
:10545400004071001047980080478000300290009f
:1054640080478000404090000e01e80013c0b30064
:10547400ae409000040001001e4f40001e00fb00df
:10548400300798003e0090000080fa0000000600fb
:105494000a00fa0020479800210798006247980004
:1054a40073479800804780000000e00003003a0042
:1054b4000080eb004007980016003700804780000a
:1054c40040029000804780004040900013c0b30029
:1054d4002e019000ae40900004000100004f7800bf
:1054e4002e009000904078007e40900000c0600044
:1054f4008080fb006e4090000080fb000088de008e
:10550400804078002e009000014878001e00fb00c7
:10551400400798004e0090000080fa00000006004a
:105524000c00fa00889fbe003007980041079800dd
:10553400224f980000902000d1032000100798000b
:105544002107980070c2b300004f7800250c0700b3
:1055540010079800210798001e009000ae009000ec
:10556400c0f007000004be003e009000ce00900092
:10557400bcf007000001be000800be00e4f0070014
:105584000004be001e009000ae009000b5f00700bd
:105594000268290083b12c00ddf007000001be0081
:1055a4000800be0075f107000200200003f8230084
:1055b40071f10700cef10700004f78002e489000eb
:1055c4000080fb0004f407009e80fb00000028001c
:1055d40029f407004f04be000080fa000000060012
:1055e4000c00fa00889fbe0030079800410798001d
:1055f400224f980000902000d1032000100798004b
:105604002107980030c0b300004f7800f50b070065
:1056140010079800210798001e009000ae0090002b
:1056240090f007000004be003e009000ce00900001
:105634008cf007000001be000800be00b4f00700b3
:105644000004be001e009000ae00900085f007002c
:105654000268290083b12c00adf007000001be00f0
:105664000800be0045f107000200200003f82300f3
:1056740041f107009ef10700004f78002e4890008a
:105684000080fb00fff307009e80fb000000280061
:1056940027f407004f04be000080fa000000060053
:1056a4000c00fa00889fbe0030079800410798005c
:1056b400224f980000902000d1032000100798008a
:1056c4002107980030c0b300004f7800c50b0700d5
:1056d40010079800210798001e009000ae0090006b
:1056e40060f007000004be003e009000ce00900071
:1056f4005cf007000001be000800be0084f0070053
:105704000004be001e009000ae00900055f007009b
:105714000268290083b12c007df007000001be005f
:105724000800be0015f107000200200003f8230062
:1057340011f107006ef10700004f78002e48900029
:105744000080fb00cff307009e80fb0000002800d0
:10575400faf307004f04be000080fa0000000600c0
:105764000800fa0020479800314798002207980063
:10577400634798002e409000004040002047980066
:10578400f1f30700f2f3070009c2bf0001c8b30038
:10579400014060000004e000fbff3a002e4090004e
:1057a400fef30700004f7800e9f3070009c2bf00c9
:1057b40001c8b300014060000004e000fbff3a00b0
:1057c4003e409000f5f30700004f7800e0f3070037
:1057d40009c2bf0001c8b300014060000004e0003a
:1057e400fbff3a000d0037002e00900010407800b7
:1057f400eaf30700004f7800d5f3070009c2bf00a1
:1058040001c8b300014060000004e000fbff3a005f
:105814002e0090000000e800200798006e409000e1
:105824000040e900604798006e409000e14f40005e
:10583400edff3a00e3f30700c5f307001e00fb0089
:105844000080fa00000006000800fa0020479800d3
:105854003147980022079800634798002e40900033
:105864000040400020479800d8f30700d9f3070010
:1058740019c2bf0001c8b300014060000004e00089
:10588400fbff3a002e409000e5f30700004f78003c
:10589400d0f3070019c2bf0001c8b3000140600083
:1058a4000004e000fbff3a003e409000dcf30700f8
:1058b400004f7800c7f3070019c2bf0001c8b30046
:1058c400014060000004e000fbff3a000d003700d7
:1058d4002e00900010407800d1f30700004f7800ac
:1058e400bcf3070019c2bf0001c8b3000140600047
:1058f4000004e000fbff3a002e0090000000e800e6
:10590400200798006e4090000040e900604798002e
:105914006e409000e14f4000edff3a00caf30700eb
:10592400acf307001e00fb000080fa000000060034
:105934000800fa0020479800314798002207980091
:10594400634798002e409000004040002047980094
:10595400bff30700c0f3070079c2bf0001c8b3005a
:10596400014060000004e000fbff3a002e4090007c
:10597400ccf30700004f7800b7f3070079c2bf00eb
:1059840001c8b300014060000004e000fbff3a00de
:105994003e409000c3f30700004f7800aef30700c9
:1059a40079c2bf0001c8b300014060000004e000f8
:1059b400fbff3a000d0037002e00900010407800e5
:1059c400b8f30700004f7800a3f3070079c2bf00c3
:1059d40001c8b300014060000004e000fbff3a008e
:1059e4002e0090000000e800200798006e40900010
:1059f4000040e900604798006e409000e14f40008d
:105a0400edff3a00b1f3070093f307001e00fb001b
:105a14000080fa00000006000a00fa0040479800df
:105a24005147980032079800034f98000e489000a1
:105a34008080fb00400620000088b9001007980011
:105a44004e4090000080fb0000004000004f7800b2
:105a54003df307003ef3070009c2bf0001c8b300cd
:105a6400014060000004e000fbff3a001e407800a3
:105a74004af307001047980035f3070009c2bf0036
:105a840001c8b300014060000004e000fbff3a00dd
